{
  "contractName": "CMYRaptor",
  "abi": [
    {
      "inputs": [],
      "stateMutability": "nonpayable",
      "type": "constructor"
    },
    {
      "anonymous": false,
      "inputs": [
        {
          "indexed": true,
          "internalType": "address",
          "name": "owner",
          "type": "address"
        },
        {
          "indexed": true,
          "internalType": "address",
          "name": "approved",
          "type": "address"
        },
        {
          "indexed": true,
          "internalType": "uint256",
          "name": "tokenId",
          "type": "uint256"
        }
      ],
      "name": "Approval",
      "type": "event"
    },
    {
      "anonymous": false,
      "inputs": [
        {
          "indexed": true,
          "internalType": "address",
          "name": "owner",
          "type": "address"
        },
        {
          "indexed": true,
          "internalType": "address",
          "name": "operator",
          "type": "address"
        },
        {
          "indexed": false,
          "internalType": "bool",
          "name": "approved",
          "type": "bool"
        }
      ],
      "name": "ApprovalForAll",
      "type": "event"
    },
    {
      "anonymous": false,
      "inputs": [
        {
          "indexed": true,
          "internalType": "address",
          "name": "_recipient",
          "type": "address"
        },
        {
          "indexed": false,
          "internalType": "uint256",
          "name": "_tokenId",
          "type": "uint256"
        }
      ],
      "name": "RaptorMinted",
      "type": "event"
    },
    {
      "anonymous": false,
      "inputs": [
        {
          "indexed": true,
          "internalType": "address",
          "name": "from",
          "type": "address"
        },
        {
          "indexed": true,
          "internalType": "address",
          "name": "to",
          "type": "address"
        },
        {
          "indexed": true,
          "internalType": "uint256",
          "name": "tokenId",
          "type": "uint256"
        }
      ],
      "name": "Transfer",
      "type": "event"
    },
    {
      "inputs": [
        {
          "internalType": "address",
          "name": "to",
          "type": "address"
        },
        {
          "internalType": "uint256",
          "name": "tokenId",
          "type": "uint256"
        }
      ],
      "name": "approve",
      "outputs": [],
      "stateMutability": "nonpayable",
      "type": "function"
    },
    {
      "inputs": [
        {
          "internalType": "address",
          "name": "owner",
          "type": "address"
        }
      ],
      "name": "balanceOf",
      "outputs": [
        {
          "internalType": "uint256",
          "name": "",
          "type": "uint256"
        }
      ],
      "stateMutability": "view",
      "type": "function",
      "constant": true
    },
    {
      "inputs": [],
      "name": "baseURI",
      "outputs": [
        {
          "internalType": "string",
          "name": "",
          "type": "string"
        }
      ],
      "stateMutability": "view",
      "type": "function",
      "constant": true
    },
    {
      "inputs": [
        {
          "internalType": "uint256",
          "name": "tokenId",
          "type": "uint256"
        }
      ],
      "name": "getApproved",
      "outputs": [
        {
          "internalType": "address",
          "name": "",
          "type": "address"
        }
      ],
      "stateMutability": "view",
      "type": "function",
      "constant": true
    },
    {
      "inputs": [
        {
          "internalType": "address",
          "name": "owner",
          "type": "address"
        },
        {
          "internalType": "address",
          "name": "operator",
          "type": "address"
        }
      ],
      "name": "isApprovedForAll",
      "outputs": [
        {
          "internalType": "bool",
          "name": "",
          "type": "bool"
        }
      ],
      "stateMutability": "view",
      "type": "function",
      "constant": true
    },
    {
      "inputs": [],
      "name": "name",
      "outputs": [
        {
          "internalType": "string",
          "name": "",
          "type": "string"
        }
      ],
      "stateMutability": "view",
      "type": "function",
      "constant": true
    },
    {
      "inputs": [],
      "name": "owner",
      "outputs": [
        {
          "internalType": "address",
          "name": "",
          "type": "address"
        }
      ],
      "stateMutability": "view",
      "type": "function",
      "constant": true
    },
    {
      "inputs": [
        {
          "internalType": "uint256",
          "name": "tokenId",
          "type": "uint256"
        }
      ],
      "name": "ownerOf",
      "outputs": [
        {
          "internalType": "address",
          "name": "",
          "type": "address"
        }
      ],
      "stateMutability": "view",
      "type": "function",
      "constant": true
    },
    {
      "inputs": [
        {
          "internalType": "address",
          "name": "from",
          "type": "address"
        },
        {
          "internalType": "address",
          "name": "to",
          "type": "address"
        },
        {
          "internalType": "uint256",
          "name": "tokenId",
          "type": "uint256"
        }
      ],
      "name": "safeTransferFrom",
      "outputs": [],
      "stateMutability": "nonpayable",
      "type": "function"
    },
    {
      "inputs": [
        {
          "internalType": "address",
          "name": "from",
          "type": "address"
        },
        {
          "internalType": "address",
          "name": "to",
          "type": "address"
        },
        {
          "internalType": "uint256",
          "name": "tokenId",
          "type": "uint256"
        },
        {
          "internalType": "bytes",
          "name": "_data",
          "type": "bytes"
        }
      ],
      "name": "safeTransferFrom",
      "outputs": [],
      "stateMutability": "nonpayable",
      "type": "function"
    },
    {
      "inputs": [
        {
          "internalType": "address",
          "name": "operator",
          "type": "address"
        },
        {
          "internalType": "bool",
          "name": "approved",
          "type": "bool"
        }
      ],
      "name": "setApprovalForAll",
      "outputs": [],
      "stateMutability": "nonpayable",
      "type": "function"
    },
    {
      "inputs": [
        {
          "internalType": "bytes4",
          "name": "interfaceId",
          "type": "bytes4"
        }
      ],
      "name": "supportsInterface",
      "outputs": [
        {
          "internalType": "bool",
          "name": "",
          "type": "bool"
        }
      ],
      "stateMutability": "view",
      "type": "function",
      "constant": true
    },
    {
      "inputs": [],
      "name": "symbol",
      "outputs": [
        {
          "internalType": "string",
          "name": "",
          "type": "string"
        }
      ],
      "stateMutability": "view",
      "type": "function",
      "constant": true
    },
    {
      "inputs": [
        {
          "internalType": "uint256",
          "name": "index",
          "type": "uint256"
        }
      ],
      "name": "tokenByIndex",
      "outputs": [
        {
          "internalType": "uint256",
          "name": "",
          "type": "uint256"
        }
      ],
      "stateMutability": "view",
      "type": "function",
      "constant": true
    },
    {
      "inputs": [
        {
          "internalType": "uint256",
          "name": "",
          "type": "uint256"
        }
      ],
      "name": "tokenColors",
      "outputs": [
        {
          "internalType": "uint8",
          "name": "c",
          "type": "uint8"
        },
        {
          "internalType": "uint8",
          "name": "m",
          "type": "uint8"
        },
        {
          "internalType": "uint8",
          "name": "y",
          "type": "uint8"
        },
        {
          "internalType": "uint8",
          "name": "k",
          "type": "uint8"
        }
      ],
      "stateMutability": "view",
      "type": "function",
      "constant": true
    },
    {
      "inputs": [
        {
          "internalType": "address",
          "name": "owner",
          "type": "address"
        },
        {
          "internalType": "uint256",
          "name": "index",
          "type": "uint256"
        }
      ],
      "name": "tokenOfOwnerByIndex",
      "outputs": [
        {
          "internalType": "uint256",
          "name": "",
          "type": "uint256"
        }
      ],
      "stateMutability": "view",
      "type": "function",
      "constant": true
    },
    {
      "inputs": [
        {
          "internalType": "uint256",
          "name": "tokenId",
          "type": "uint256"
        }
      ],
      "name": "tokenURI",
      "outputs": [
        {
          "internalType": "string",
          "name": "",
          "type": "string"
        }
      ],
      "stateMutability": "view",
      "type": "function",
      "constant": true
    },
    {
      "inputs": [],
      "name": "totalSupply",
      "outputs": [
        {
          "internalType": "uint256",
          "name": "",
          "type": "uint256"
        }
      ],
      "stateMutability": "view",
      "type": "function",
      "constant": true
    },
    {
      "inputs": [
        {
          "internalType": "address",
          "name": "from",
          "type": "address"
        },
        {
          "internalType": "address",
          "name": "to",
          "type": "address"
        },
        {
          "internalType": "uint256",
          "name": "tokenId",
          "type": "uint256"
        }
      ],
      "name": "transferFrom",
      "outputs": [],
      "stateMutability": "nonpayable",
      "type": "function"
    },
    {
      "inputs": [
        {
          "internalType": "uint8",
          "name": "_c",
          "type": "uint8"
        },
        {
          "internalType": "uint8",
          "name": "_m",
          "type": "uint8"
        },
        {
          "internalType": "uint8",
          "name": "_y",
          "type": "uint8"
        },
        {
          "internalType": "uint8",
          "name": "_k",
          "type": "uint8"
        }
      ],
      "name": "checkDupe",
      "outputs": [
        {
          "internalType": "bool",
          "name": "",
          "type": "bool"
        }
      ],
      "stateMutability": "view",
      "type": "function",
      "constant": true
    },
    {
      "inputs": [
        {
          "internalType": "address",
          "name": "_recipient",
          "type": "address"
        },
        {
          "internalType": "uint8",
          "name": "_c",
          "type": "uint8"
        },
        {
          "internalType": "uint8",
          "name": "_m",
          "type": "uint8"
        },
        {
          "internalType": "uint8",
          "name": "_y",
          "type": "uint8"
        },
        {
          "internalType": "uint8",
          "name": "_k",
          "type": "uint8"
        },
        {
          "internalType": "string",
          "name": "_tokenURI",
          "type": "string"
        }
      ],
      "name": "mintRaptor",
      "outputs": [],
      "stateMutability": "payable",
      "type": "function",
      "payable": true
    },
    {
      "inputs": [],
      "name": "withdraw",
      "outputs": [],
      "stateMutability": "nonpayable",
      "type": "function"
    }
  ],
  "bytecode": "0x60806040523480156200001157600080fd5b506040518060400160405280600981526020017f434d59526170746f7200000000000000000000000000000000000000000000008152506040518060400160405280600481526020017f434d595200000000000000000000000000000000000000000000000000000000815250620000966301ffc9a760e01b6200019f60201b60201c565b8160069080519060200190620000ae929190620002c4565b508060079080519060200190620000c7929190620002c4565b50620000e06380ac58cd60e01b6200019f60201b60201c565b620000f8635b5e139f60e01b6200019f60201b60201c565b6200011063780e9d6360e01b6200019f60201b60201c565b505033600b60006101000a81548173ffffffffffffffffffffffffffffffffffffffff021916908373ffffffffffffffffffffffffffffffffffffffff160217905550620001996040518060400160405280600781526020017f697066733a2f2f00000000000000000000000000000000000000000000000000815250620002a860201b60201c565b62000373565b63ffffffff60e01b817bffffffffffffffffffffffffffffffffffffffffffffffffffffffff191614156200023c576040517f08c379a000000000000000000000000000000000000000000000000000000000815260040180806020018281038252601c8152602001807f4552433136353a20696e76616c696420696e746572666163652069640000000081525060200191505060405180910390fd5b6001600080837bffffffffffffffffffffffffffffffffffffffffffffffffffffffff19167bffffffffffffffffffffffffffffffffffffffffffffffffffffffff1916815260200190815260200160002060006101000a81548160ff02191690831515021790555050565b8060099080519060200190620002c0929190620002c4565b5050565b828054600181600116156101000203166002900490600052602060002090601f016020900481019282601f106200030757805160ff191683800117855562000338565b8280016001018555821562000338579182015b82811115620003375782518255916020019190600101906200031a565b5b5090506200034791906200034b565b5090565b6200037091905b808211156200036c57600081600090555060010162000352565b5090565b90565b61357080620003836000396000f3fe6080604052600436106101355760003560e01c80636352211e116100ab578063a22cb4651161006f578063a22cb465146107db578063b290f6d614610838578063b88d4fde146108b5578063c87b56dd146109c7578063e985e9c514610a7b578063f48bc90514610b0457610135565b80636352211e146105845780636c0360eb146105ff57806370a082311461068f5780638da5cb5b146106f457806395d89b411461074b57610135565b806323b872dd116100fd57806323b872dd1461033d5780632f745c59146103b85780633ccfd60b1461042757806342842e0e1461043e5780634f6ccce7146104b957806350dc17221461050857610135565b806301ffc9a71461013a57806306fdde03146101ac578063081812fc1461023c578063095ea7b3146102b757806318160ddd14610312575b600080fd5b34801561014657600080fd5b506101926004803603602081101561015d57600080fd5b8101908080357bffffffffffffffffffffffffffffffffffffffffffffffffffffffff19169060200190929190505050610c13565b604051808215151515815260200191505060405180910390f35b3480156101b857600080fd5b506101c1610c7a565b6040518080602001828103825283818151815260200191508051906020019080838360005b838110156102015780820151818401526020810190506101e6565b50505050905090810190601f16801561022e5780820380516001836020036101000a031916815260200191505b509250505060405180910390f35b34801561024857600080fd5b506102756004803603602081101561025f57600080fd5b8101908080359060200190929190505050610d1c565b604051808273ffffffffffffffffffffffffffffffffffffffff1673ffffffffffffffffffffffffffffffffffffffff16815260200191505060405180910390f35b3480156102c357600080fd5b50610310600480360360408110156102da57600080fd5b81019080803573ffffffffffffffffffffffffffffffffffffffff16906020019092919080359060200190929190505050610db7565b005b34801561031e57600080fd5b50610327610efb565b6040518082815260200191505060405180910390f35b34801561034957600080fd5b506103b66004803603606081101561036057600080fd5b81019080803573ffffffffffffffffffffffffffffffffffffffff169060200190929190803573ffffffffffffffffffffffffffffffffffffffff16906020019092919080359060200190929190505050610f0c565b005b3480156103c457600080fd5b50610411600480360360408110156103db57600080fd5b81019080803573ffffffffffffffffffffffffffffffffffffffff16906020019092919080359060200190929190505050610f82565b6040518082815260200191505060405180910390f35b34801561043357600080fd5b5061043c610fdd565b005b34801561044a57600080fd5b506104b76004803603606081101561046157600080fd5b81019080803573ffffffffffffffffffffffffffffffffffffffff169060200190929190803573ffffffffffffffffffffffffffffffffffffffff16906020019092919080359060200190929190505050611083565b005b3480156104c557600080fd5b506104f2600480360360208110156104dc57600080fd5b81019080803590602001909291905050506110a3565b6040518082815260200191505060405180910390f35b34801561051457600080fd5b506105416004803603602081101561052b57600080fd5b81019080803590602001909291905050506110c6565b604051808560ff1660ff1681526020018460ff1660ff1681526020018360ff1660ff1681526020018260ff1660ff16815260200194505050505060405180910390f35b34801561059057600080fd5b506105bd600480360360208110156105a757600080fd5b810190808035906020019092919050505061112a565b604051808273ffffffffffffffffffffffffffffffffffffffff1673ffffffffffffffffffffffffffffffffffffffff16815260200191505060405180910390f35b34801561060b57600080fd5b50610614611161565b6040518080602001828103825283818151815260200191508051906020019080838360005b83811015610654578082015181840152602081019050610639565b50505050905090810190601f1680156106815780820380516001836020036101000a031916815260200191505b509250505060405180910390f35b34801561069b57600080fd5b506106de600480360360208110156106b257600080fd5b81019080803573ffffffffffffffffffffffffffffffffffffffff169060200190929190505050611203565b6040518082815260200191505060405180910390f35b34801561070057600080fd5b506107096112d8565b604051808273ffffffffffffffffffffffffffffffffffffffff1673ffffffffffffffffffffffffffffffffffffffff16815260200191505060405180910390f35b34801561075757600080fd5b506107606112fe565b6040518080602001828103825283818151815260200191508051906020019080838360005b838110156107a0578082015181840152602081019050610785565b50505050905090810190601f1680156107cd5780820380516001836020036101000a031916815260200191505b509250505060405180910390f35b3480156107e757600080fd5b50610836600480360360408110156107fe57600080fd5b81019080803573ffffffffffffffffffffffffffffffffffffffff1690602001909291908035151590602001909291905050506113a0565b005b34801561084457600080fd5b5061089b6004803603608081101561085b57600080fd5b81019080803560ff169060200190929190803560ff169060200190929190803560ff169060200190929190803560ff169060200190929190505050611558565b604051808215151515815260200191505060405180910390f35b3480156108c157600080fd5b506109c5600480360360808110156108d857600080fd5b81019080803573ffffffffffffffffffffffffffffffffffffffff169060200190929190803573ffffffffffffffffffffffffffffffffffffffff169060200190929190803590602001909291908035906020019064010000000081111561093f57600080fd5b82018360208201111561095157600080fd5b8035906020019184600183028401116401000000008311171561097357600080fd5b91908080601f016020809104026020016040519081016040528093929190818152602001838380828437600081840152601f19601f82011690508083019250505050505050919291929050505061168b565b005b3480156109d357600080fd5b50610a00600480360360208110156109ea57600080fd5b8101908080359060200190929190505050611703565b6040518080602001828103825283818151815260200191508051906020019080838360005b83811015610a40578082015181840152602081019050610a25565b50505050905090810190601f168015610a6d5780820380516001836020036101000a031916815260200191505b509250505060405180910390f35b348015610a8757600080fd5b50610aea60048036036040811015610a9e57600080fd5b81019080803573ffffffffffffffffffffffffffffffffffffffff169060200190929190803573ffffffffffffffffffffffffffffffffffffffff1690602001909291905050506119d4565b604051808215151515815260200191505060405180910390f35b610c11600480360360c0811015610b1a57600080fd5b81019080803573ffffffffffffffffffffffffffffffffffffffff169060200190929190803560ff169060200190929190803560ff169060200190929190803560ff169060200190929190803560ff16906020019092919080359060200190640100000000811115610b8b57600080fd5b820183602082011115610b9d57600080fd5b80359060200191846001830284011164010000000083111715610bbf57600080fd5b91908080601f016020809104026020016040519081016040528093929190818152602001838380828437600081840152601f19601f820116905080830192505050505050509192919290505050611a68565b005b6000806000837bffffffffffffffffffffffffffffffffffffffffffffffffffffffff19167bffffffffffffffffffffffffffffffffffffffffffffffffffffffff1916815260200190815260200160002060009054906101000a900460ff169050919050565b606060068054600181600116156101000203166002900480601f016020809104026020016040519081016040528092919081815260200182805460018160011615610100020316600290048015610d125780601f10610ce757610100808354040283529160200191610d12565b820191906000526020600020905b815481529060010190602001808311610cf557829003601f168201915b5050505050905090565b6000610d2782611ee2565b610d7c576040517f08c379a000000000000000000000000000000000000000000000000000000000815260040180806020018281038252602c815260200180613439602c913960400191505060405180910390fd5b6004600083815260200190815260200160002060009054906101000a900473ffffffffffffffffffffffffffffffffffffffff169050919050565b6000610dc28261112a565b90508073ffffffffffffffffffffffffffffffffffffffff168373ffffffffffffffffffffffffffffffffffffffff161415610e49576040517f08c379a00000000000000000000000000000000000000000000000000000000081526004018080602001828103825260218152602001806134e96021913960400191505060405180910390fd5b8073ffffffffffffffffffffffffffffffffffffffff16610e68611eff565b73ffffffffffffffffffffffffffffffffffffffff161480610e975750610e9681610e91611eff565b6119d4565b5b610eec576040517f08c379a000000000000000000000000000000000000000000000000000000000815260040180806020018281038252603881526020018061338c6038913960400191505060405180910390fd5b610ef68383611f07565b505050565b6000610f076002611fc0565b905090565b610f1d610f17611eff565b82611fd5565b610f72576040517f08c379a000000000000000000000000000000000000000000000000000000000815260040180806020018281038252603181526020018061350a6031913960400191505060405180910390fd5b610f7d8383836120c9565b505050565b6000610fd582600160008673ffffffffffffffffffffffffffffffffffffffff1673ffffffffffffffffffffffffffffffffffffffff16815260200190815260200160002061230c90919063ffffffff16565b905092915050565b600b60009054906101000a900473ffffffffffffffffffffffffffffffffffffffff1673ffffffffffffffffffffffffffffffffffffffff163373ffffffffffffffffffffffffffffffffffffffff1614156110815760004790503373ffffffffffffffffffffffffffffffffffffffff166108fc829081150290604051600060405180830381858888f1935050505015801561107e573d6000803e3d6000fd5b50505b565b61109e8383836040518060200160405280600081525061168b565b505050565b6000806110ba83600261232690919063ffffffff16565b50905080915050919050565b600c6020528060005260406000206000915090508060000160009054906101000a900460ff16908060000160019054906101000a900460ff16908060000160029054906101000a900460ff16908060000160039054906101000a900460ff16905084565b600061115a826040518060600160405280602981526020016133ee6029913960026123559092919063ffffffff16565b9050919050565b606060098054600181600116156101000203166002900480601f0160208091040260200160405190810160405280929190818152602001828054600181600116156101000203166002900480156111f95780601f106111ce576101008083540402835291602001916111f9565b820191906000526020600020905b8154815290600101906020018083116111dc57829003601f168201915b5050505050905090565b60008073ffffffffffffffffffffffffffffffffffffffff168273ffffffffffffffffffffffffffffffffffffffff16141561128a576040517f08c379a000000000000000000000000000000000000000000000000000000000815260040180806020018281038252602a8152602001806133c4602a913960400191505060405180910390fd5b6112d1600160008473ffffffffffffffffffffffffffffffffffffffff1673ffffffffffffffffffffffffffffffffffffffff168152602001908152602001600020612374565b9050919050565b600b60009054906101000a900473ffffffffffffffffffffffffffffffffffffffff1681565b606060078054600181600116156101000203166002900480601f0160208091040260200160405190810160405280929190818152602001828054600181600116156101000203166002900480156113965780601f1061136b57610100808354040283529160200191611396565b820191906000526020600020905b81548152906001019060200180831161137957829003601f168201915b5050505050905090565b6113a8611eff565b73ffffffffffffffffffffffffffffffffffffffff168273ffffffffffffffffffffffffffffffffffffffff161415611449576040517f08c379a00000000000000000000000000000000000000000000000000000000081526004018080602001828103825260198152602001807f4552433732313a20617070726f766520746f2063616c6c65720000000000000081525060200191505060405180910390fd5b8060056000611456611eff565b73ffffffffffffffffffffffffffffffffffffffff1673ffffffffffffffffffffffffffffffffffffffff16815260200190815260200160002060008473ffffffffffffffffffffffffffffffffffffffff1673ffffffffffffffffffffffffffffffffffffffff16815260200190815260200160002060006101000a81548160ff0219169083151502179055508173ffffffffffffffffffffffffffffffffffffffff16611503611eff565b73ffffffffffffffffffffffffffffffffffffffff167f17307eab39ab6107e8899845ad3d59bd9653f200f220920489ca2b5937696c3183604051808215151515815260200191505060405180910390a35050565b600080600090506000600190505b611570600a612389565b8161ffff161161167e576115826131e8565b600c60008361ffff1681526020019081526020016000206040518060800160405290816000820160009054906101000a900460ff1660ff1660ff1681526020016000820160019054906101000a900460ff1660ff1660ff1681526020016000820160029054906101000a900460ff1660ff1660ff1681526020016000820160039054906101000a900460ff1660ff1660ff168152505090508760ff16816000015160ff1614801561163c57508660ff16816020015160ff16145b801561165157508560ff16816040015160ff16145b801561166657508460ff16816060015160ff16145b1561167057600192505b508080600101915050611566565b5080915050949350505050565b61169c611696611eff565b83611fd5565b6116f1576040517f08c379a000000000000000000000000000000000000000000000000000000000815260040180806020018281038252603181526020018061350a6031913960400191505060405180910390fd5b6116fd84848484612397565b50505050565b606061170e82611ee2565b611763576040517f08c379a000000000000000000000000000000000000000000000000000000000815260040180806020018281038252602f8152602001806134ba602f913960400191505060405180910390fd5b6060600860008481526020019081526020016000208054600181600116156101000203166002900480601f01602080910402602001604051908101604052809291908181526020018280546001816001161561010002031660029004801561180c5780601f106117e15761010080835404028352916020019161180c565b820191906000526020600020905b8154815290600101906020018083116117ef57829003601f168201915b50505050509050606061181d611161565b90506000815114156118335781925050506119cf565b6000825111156119045780826040516020018083805190602001908083835b602083106118755780518252602082019150602081019050602083039250611852565b6001836020036101000a03801982511681845116808217855250505050505090500182805190602001908083835b602083106118c657805182526020820191506020810190506020830392506118a3565b6001836020036101000a03801982511681845116808217855250505050505090500192505050604051602081830303815290604052925050506119cf565b8061190e85612409565b6040516020018083805190602001908083835b602083106119445780518252602082019150602081019050602083039250611921565b6001836020036101000a03801982511681845116808217855250505050505090500182805190602001908083835b602083106119955780518252602082019150602081019050602083039250611972565b6001836020036101000a03801982511681845116808217855250505050505090500192505050604051602081830303815290604052925050505b919050565b6000600560008473ffffffffffffffffffffffffffffffffffffffff1673ffffffffffffffffffffffffffffffffffffffff16815260200190815260200160002060008373ffffffffffffffffffffffffffffffffffffffff1673ffffffffffffffffffffffffffffffffffffffff16815260200190815260200160002060009054906101000a900460ff16905092915050565b662386f26fc10000341015611ae5576040517f08c379a000000000000000000000000000000000000000000000000000000000815260040180806020018281038252600f8152602001807f6d757374206265202e303120657468000000000000000000000000000000000081525060200191505060405180910390fd5b60648560ff1611158015611afd575060008560ff1610155b611b6f576040517f08c379a00000000000000000000000000000000000000000000000000000000081526004018080602001828103825260158152602001807f696e76616c696420636f6c6f722076616c75652063000000000000000000000081525060200191505060405180910390fd5b60648460ff1611158015611b87575060008460ff1610155b611bf9576040517f08c379a00000000000000000000000000000000000000000000000000000000081526004018080602001828103825260158152602001807f696e76616c696420636f6c6f722076616c7565206d000000000000000000000081525060200191505060405180910390fd5b60648360ff1611158015611c11575060008360ff1610155b611c83576040517f08c379a00000000000000000000000000000000000000000000000000000000081526004018080602001828103825260158152602001807f696e76616c696420636f6c6f722076616c75652079000000000000000000000081525060200191505060405180910390fd5b60648260ff1611158015611c9b575060008260ff1610155b611d0d576040517f08c379a00000000000000000000000000000000000000000000000000000000081526004018080602001828103825260158152602001807f696e76616c696420636f6c6f722076616c7565206b000000000000000000000081525060200191505060405180910390fd5b611d1985858585611558565b15611d8c576040517f08c379a00000000000000000000000000000000000000000000000000000000081526004018080602001828103825260088152602001807f6e6f20647570657300000000000000000000000000000000000000000000000081525060200191505060405180910390fd5b611d946131e8565b60405180608001604052808760ff1681526020018660ff1681526020018560ff1681526020018460ff168152509050611dcd600a612539565b6000611dd9600a612389565b9050611de5888261254f565b611def8184612743565b81600c600083815260200190815260200160002060008201518160000160006101000a81548160ff021916908360ff16021790555060208201518160000160016101000a81548160ff021916908360ff16021790555060408201518160000160026101000a81548160ff021916908360ff16021790555060608201518160000160036101000a81548160ff021916908360ff1602179055509050508773ffffffffffffffffffffffffffffffffffffffff167f8d1559deb8bf1a7f9ece8543cea58dbcdfca493275d34df89ce6a95e8d342821826040518082815260200191505060405180910390a25050505050505050565b6000611ef88260026127cd90919063ffffffff16565b9050919050565b600033905090565b816004600083815260200190815260200160002060006101000a81548173ffffffffffffffffffffffffffffffffffffffff021916908373ffffffffffffffffffffffffffffffffffffffff160217905550808273ffffffffffffffffffffffffffffffffffffffff16611f7a8361112a565b73ffffffffffffffffffffffffffffffffffffffff167f8c5be1e5ebec7d5bd14f71427d1e84f3dd0314c0f7b2291e5b200ac8c7c3b92560405160405180910390a45050565b6000611fce826000016127e7565b9050919050565b6000611fe082611ee2565b612035576040517f08c379a000000000000000000000000000000000000000000000000000000000815260040180806020018281038252602c815260200180613360602c913960400191505060405180910390fd5b60006120408361112a565b90508073ffffffffffffffffffffffffffffffffffffffff168473ffffffffffffffffffffffffffffffffffffffff1614806120af57508373ffffffffffffffffffffffffffffffffffffffff1661209784610d1c565b73ffffffffffffffffffffffffffffffffffffffff16145b806120c057506120bf81856119d4565b5b91505092915050565b8273ffffffffffffffffffffffffffffffffffffffff166120e98261112a565b73ffffffffffffffffffffffffffffffffffffffff1614612155576040517f08c379a00000000000000000000000000000000000000000000000000000000081526004018080602001828103825260298152602001806134916029913960400191505060405180910390fd5b600073ffffffffffffffffffffffffffffffffffffffff168273ffffffffffffffffffffffffffffffffffffffff1614156121db576040517f08c379a00000000000000000000000000000000000000000000000000000000081526004018080602001828103825260248152602001806133166024913960400191505060405180910390fd5b6121e68383836127f8565b6121f1600082611f07565b61224281600160008673ffffffffffffffffffffffffffffffffffffffff1673ffffffffffffffffffffffffffffffffffffffff1681526020019081526020016000206127fd90919063ffffffff16565b5061229481600160008573ffffffffffffffffffffffffffffffffffffffff1673ffffffffffffffffffffffffffffffffffffffff16815260200190815260200160002061281790919063ffffffff16565b506122ab818360026128319092919063ffffffff16565b50808273ffffffffffffffffffffffffffffffffffffffff168473ffffffffffffffffffffffffffffffffffffffff167fddf252ad1be2c89b69c2b068fc378daa952ba7f163c4a11628f55a4df523b3ef60405160405180910390a4505050565b600061231b8360000183612866565b60001c905092915050565b60008060008061233986600001866128e9565b915091508160001c8160001c8090509350935050509250929050565b6000612368846000018460001b84612982565b60001c90509392505050565b600061238282600001612a78565b9050919050565b600081600001549050919050565b6123a28484846120c9565b6123ae84848484612a89565b612403576040517f08c379a00000000000000000000000000000000000000000000000000000000081526004018080602001828103825260328152602001806132e46032913960400191505060405180910390fd5b50505050565b60606000821415612451576040518060400160405280600181526020017f30000000000000000000000000000000000000000000000000000000000000008152509050612534565b600082905060005b6000821461247b578080600101915050600a828161247357fe5b049150612459565b6060816040519080825280601f01601f1916602001820160405280156124b05781602001600182028038833980820191505090505b50905060006001830390508593505b6000841461252c57600a84816124d157fe5b0660300160f81b828280600190039350815181106124eb57fe5b60200101907effffffffffffffffffffffffffffffffffffffffffffffffffffffffffffff1916908160001a905350600a848161252457fe5b0493506124bf565b819450505050505b919050565b6001816000016000828254019250508190555050565b600073ffffffffffffffffffffffffffffffffffffffff168273ffffffffffffffffffffffffffffffffffffffff1614156125f2576040517f08c379a00000000000000000000000000000000000000000000000000000000081526004018080602001828103825260208152602001807f4552433732313a206d696e7420746f20746865207a65726f206164647265737381525060200191505060405180910390fd5b6125fb81611ee2565b1561266e576040517f08c379a000000000000000000000000000000000000000000000000000000000815260040180806020018281038252601c8152602001807f4552433732313a20746f6b656e20616c7265616479206d696e7465640000000081525060200191505060405180910390fd5b61267a600083836127f8565b6126cb81600160008573ffffffffffffffffffffffffffffffffffffffff1673ffffffffffffffffffffffffffffffffffffffff16815260200190815260200160002061281790919063ffffffff16565b506126e2818360026128319092919063ffffffff16565b50808273ffffffffffffffffffffffffffffffffffffffff16600073ffffffffffffffffffffffffffffffffffffffff167fddf252ad1be2c89b69c2b068fc378daa952ba7f163c4a11628f55a4df523b3ef60405160405180910390a45050565b61274c82611ee2565b6127a1576040517f08c379a000000000000000000000000000000000000000000000000000000000815260040180806020018281038252602c815260200180613465602c913960400191505060405180910390fd5b806008600084815260200190815260200160002090805190602001906127c892919061321c565b505050565b60006127df836000018360001b612cce565b905092915050565b600081600001805490509050919050565b505050565b600061280f836000018360001b612cf1565b905092915050565b6000612829836000018360001b612dd9565b905092915050565b600061285d846000018460001b8473ffffffffffffffffffffffffffffffffffffffff1660001b612e49565b90509392505050565b6000818360000180549050116128c7576040517f08c379a00000000000000000000000000000000000000000000000000000000081526004018080602001828103825260228152602001806132c26022913960400191505060405180910390fd5b8260000182815481106128d657fe5b9060005260206000200154905092915050565b6000808284600001805490501161294b576040517f08c379a00000000000000000000000000000000000000000000000000000000081526004018080602001828103825260228152602001806134176022913960400191505060405180910390fd5b600084600001848154811061295c57fe5b906000526020600020906002020190508060000154816001015492509250509250929050565b60008084600101600085815260200190815260200160002054905060008114158390612a49576040517f08c379a00000000000000000000000000000000000000000000000000000000081526004018080602001828103825283818151815260200191508051906020019080838360005b83811015612a0e5780820151818401526020810190506129f3565b50505050905090810190601f168015612a3b5780820380516001836020036101000a031916815260200191505b509250505060405180910390fd5b50846000016001820381548110612a5c57fe5b9060005260206000209060020201600101549150509392505050565b600081600001805490509050919050565b6000612aaa8473ffffffffffffffffffffffffffffffffffffffff16612f25565b612ab75760019050612cc6565b6060612c4d63150b7a0260e01b612acc611eff565b888787604051602401808573ffffffffffffffffffffffffffffffffffffffff1673ffffffffffffffffffffffffffffffffffffffff1681526020018473ffffffffffffffffffffffffffffffffffffffff1673ffffffffffffffffffffffffffffffffffffffff16815260200183815260200180602001828103825283818151815260200191508051906020019080838360005b83811015612b7c578082015181840152602081019050612b61565b50505050905090810190601f168015612ba95780820380516001836020036101000a031916815260200191505b5095505050505050604051602081830303815290604052907bffffffffffffffffffffffffffffffffffffffffffffffffffffffff19166020820180517bffffffffffffffffffffffffffffffffffffffffffffffffffffffff83818316178352505050506040518060600160405280603281526020016132e4603291398773ffffffffffffffffffffffffffffffffffffffff16612f389092919063ffffffff16565b90506000818060200190516020811015612c6657600080fd5b8101908080519060200190929190505050905063150b7a0260e01b7bffffffffffffffffffffffffffffffffffffffffffffffffffffffff1916817bffffffffffffffffffffffffffffffffffffffffffffffffffffffff191614925050505b949350505050565b600080836001016000848152602001908152602001600020541415905092915050565b60008083600101600084815260200190815260200160002054905060008114612dcd5760006001820390506000600186600001805490500390506000866000018281548110612d3c57fe5b9060005260206000200154905080876000018481548110612d5957fe5b9060005260206000200181905550600183018760010160008381526020019081526020016000208190555086600001805480612d9157fe5b60019003818190600052602060002001600090559055866001016000878152602001908152602001600020600090556001945050505050612dd3565b60009150505b92915050565b6000612de58383612f50565b612e3e578260000182908060018154018082558091505060019003906000526020600020016000909190919091505582600001805490508360010160008481526020019081526020016000208190555060019050612e43565b600090505b92915050565b6000808460010160008581526020019081526020016000205490506000811415612ef057846000016040518060400160405280868152602001858152509080600181540180825580915050600190039060005260206000209060020201600090919091909150600082015181600001556020820151816001015550508460000180549050856001016000868152602001908152602001600020819055506001915050612f1e565b82856000016001830381548110612f0357fe5b90600052602060002090600202016001018190555060009150505b9392505050565b600080823b905060008111915050919050565b6060612f478484600085612f73565b90509392505050565b600080836001016000848152602001908152602001600020541415905092915050565b606082471015612fce576040517f08c379a000000000000000000000000000000000000000000000000000000000815260040180806020018281038252602681526020018061333a6026913960400191505060405180910390fd5b612fd785612f25565b613049576040517f08c379a000000000000000000000000000000000000000000000000000000000815260040180806020018281038252601d8152602001807f416464726573733a2063616c6c20746f206e6f6e2d636f6e747261637400000081525060200191505060405180910390fd5b600060608673ffffffffffffffffffffffffffffffffffffffff1685876040518082805190602001908083835b602083106130995780518252602082019150602081019050602083039250613076565b6001836020036101000a03801982511681845116808217855250505050505090500191505060006040518083038185875af1925050503d80600081146130fb576040519150601f19603f3d011682016040523d82523d6000602084013e613100565b606091505b509150915061311082828661311c565b92505050949350505050565b6060831561312c578290506131e1565b60008351111561313f5782518084602001fd5b816040517f08c379a00000000000000000000000000000000000000000000000000000000081526004018080602001828103825283818151815260200191508051906020019080838360005b838110156131a657808201518184015260208101905061318b565b50505050905090810190601f1680156131d35780820380516001836020036101000a031916815260200191505b509250505060405180910390fd5b9392505050565b6040518060800160405280600060ff168152602001600060ff168152602001600060ff168152602001600060ff1681525090565b828054600181600116156101000203166002900490600052602060002090601f016020900481019282601f1061325d57805160ff191683800117855561328b565b8280016001018555821561328b579182015b8281111561328a57825182559160200191906001019061326f565b5b509050613298919061329c565b5090565b6132be91905b808211156132ba5760008160009055506001016132a2565b5090565b9056fe456e756d657261626c655365743a20696e646578206f7574206f6620626f756e64734552433732313a207472616e7366657220746f206e6f6e20455243373231526563656976657220696d706c656d656e7465724552433732313a207472616e7366657220746f20746865207a65726f2061646472657373416464726573733a20696e73756666696369656e742062616c616e636520666f722063616c6c4552433732313a206f70657261746f7220717565727920666f72206e6f6e6578697374656e7420746f6b656e4552433732313a20617070726f76652063616c6c6572206973206e6f74206f776e6572206e6f7220617070726f76656420666f7220616c6c4552433732313a2062616c616e636520717565727920666f7220746865207a65726f20616464726573734552433732313a206f776e657220717565727920666f72206e6f6e6578697374656e7420746f6b656e456e756d657261626c654d61703a20696e646578206f7574206f6620626f756e64734552433732313a20617070726f76656420717565727920666f72206e6f6e6578697374656e7420746f6b656e4552433732314d657461646174613a2055524920736574206f66206e6f6e6578697374656e7420746f6b656e4552433732313a207472616e73666572206f6620746f6b656e2074686174206973206e6f74206f776e4552433732314d657461646174613a2055524920717565727920666f72206e6f6e6578697374656e7420746f6b656e4552433732313a20617070726f76616c20746f2063757272656e74206f776e65724552433732313a207472616e736665722063616c6c6572206973206e6f74206f776e6572206e6f7220617070726f766564a2646970667358221220f1090c2c571cd7f3fd8843a6d752698afbe4a14793bc8faf0c2d23147b7fff1764736f6c63430006020033",
  "source": "pragma solidity ^0.6.0;\r\n\r\nimport \"@openzeppelin/contracts/token/ERC721/ERC721.sol\";\r\nimport \"@openzeppelin/contracts/utils/Counters.sol\";\r\n\r\ncontract CMYRaptor is ERC721 {\r\n    using Counters for Counters.Counter;\r\n    Counters.Counter private _tokenIds;\r\n\r\n    address public owner;\r\n\r\n    struct CMYK {\r\n        uint8 c;\r\n        uint8 m;\r\n        uint8 y;\r\n        uint8 k;\r\n    }\r\n\r\n    mapping(uint256 => CMYK) public tokenColors;\r\n\r\n    event RaptorMinted(address indexed _recipient, uint256 _tokenId);\r\n\r\n    constructor() public ERC721(\"CMYRaptor\", \"CMYR\") {\r\n        owner = msg.sender;\r\n        _setBaseURI(\"ipfs://\");\r\n    }\r\n\r\n    modifier restricted() {\r\n        if (msg.sender == owner) _;\r\n    }\r\n\r\n    function checkDupe(\r\n        uint8 _c,\r\n        uint8 _m,\r\n        uint8 _y,\r\n        uint8 _k\r\n    ) public view returns (bool) {\r\n        bool isDupe = false;\r\n        for (uint16 i = 1; i <= _tokenIds.current(); i++) {\r\n            CMYK memory cmyk = tokenColors[i];\r\n            if (cmyk.c == _c && cmyk.m == _m && cmyk.y == _y && cmyk.k == _k) {\r\n                isDupe = true;\r\n            }\r\n        }\r\n        return isDupe;\r\n    }\r\n\r\n    function mintRaptor(\r\n        address _recipient,\r\n        uint8 _c,\r\n        uint8 _m,\r\n        uint8 _y,\r\n        uint8 _k,\r\n        string memory _tokenURI\r\n    ) public payable {\r\n        require(msg.value >= 10**16, \"must be .01 eth\");\r\n        require(_c <= 100 && _c >= 0, \"invalid color value c\");\r\n        require(_m <= 100 && _m >= 0, \"invalid color value m\");\r\n        require(_y <= 100 && _y >= 0, \"invalid color value y\");\r\n        require(_k <= 100 && _k >= 0, \"invalid color value k\");\r\n        require(!checkDupe(_c, _m, _y, _k), \"no dupes\");     \r\n           CMYK memory _cmyk = CMYK(_c, _m, _y, _k);\r\n        _tokenIds.increment();\r\n        uint256 newTokenId = _tokenIds.current();\r\n        _mint(_recipient, newTokenId);\r\n        _setTokenURI(newTokenId, _tokenURI);\r\n        tokenColors[newTokenId] = _cmyk;\r\n        emit RaptorMinted(_recipient, newTokenId);\r\n    }\r\n\r\n    function withdraw() public restricted {\r\n        uint256 amount = address(this).balance;\r\n        payable(msg.sender).transfer(amount);\r\n    }\r\n}\r\n",
  "sourcePath": "C:/Users/aklevecz/CMYRaptor/contracts/CMYRaptor.sol",
  "compiler": {
    "name": "solc",
    "version": "0.6.2+commit.bacdbe57.Emscripten.clang"
  },
  "schemaVersion": "3.3.4",
  "updatedAt": "2021-03-09T22:59:01.016Z",
  "networkType": "ethereum",
  "devdoc": {
    "methods": {
      "approve(address,uint256)": {
        "details": "See {IERC721-approve}."
      },
      "balanceOf(address)": {
        "details": "See {IERC721-balanceOf}."
      },
      "baseURI()": {
        "details": "Returns the base URI set via {_setBaseURI}. This will be automatically added as a prefix in {tokenURI} to each token's URI, or to the token ID if no specific URI is set for that token ID."
      },
      "getApproved(uint256)": {
        "details": "See {IERC721-getApproved}."
      },
      "isApprovedForAll(address,address)": {
        "details": "See {IERC721-isApprovedForAll}."
      },
      "name()": {
        "details": "See {IERC721Metadata-name}."
      },
      "ownerOf(uint256)": {
        "details": "See {IERC721-ownerOf}."
      },
      "safeTransferFrom(address,address,uint256)": {
        "details": "See {IERC721-safeTransferFrom}."
      },
      "safeTransferFrom(address,address,uint256,bytes)": {
        "details": "See {IERC721-safeTransferFrom}."
      },
      "setApprovalForAll(address,bool)": {
        "details": "See {IERC721-setApprovalForAll}."
      },
      "supportsInterface(bytes4)": {
        "details": "See {IERC165-supportsInterface}.     * Time complexity O(1), guaranteed to always use less than 30 000 gas."
      },
      "symbol()": {
        "details": "See {IERC721Metadata-symbol}."
      },
      "tokenByIndex(uint256)": {
        "details": "See {IERC721Enumerable-tokenByIndex}."
      },
      "tokenOfOwnerByIndex(address,uint256)": {
        "details": "See {IERC721Enumerable-tokenOfOwnerByIndex}."
      },
      "tokenURI(uint256)": {
        "details": "See {IERC721Metadata-tokenURI}."
      },
      "totalSupply()": {
        "details": "See {IERC721Enumerable-totalSupply}."
      },
      "transferFrom(address,address,uint256)": {
        "details": "See {IERC721-transferFrom}."
      }
    }
  },
  "userdoc": {
    "methods": {}
  }
}